{
  "_format": "hh-sol-artifact-1",
  "contractName": "MerkleAirdrop",
  "sourceName": "contracts/MerkleAirdrop.sol",
  "abi": [
    {
      "inputs": [
        {
          "internalType": "address",
          "name": "_tokenAddress",
          "type": "address"
        },
        {
          "internalType": "bytes32",
          "name": "_merkleRootHash",
          "type": "bytes32"
        }
      ],
      "stateMutability": "nonpayable",
      "type": "constructor"
    },
    {
      "inputs": [],
      "name": "ClaimingFailed",
      "type": "error"
    },
    {
      "inputs": [],
      "name": "InsufficientFundsPleaseTryAgain",
      "type": "error"
    },
    {
      "inputs": [],
      "name": "InsufficientTokenAmountFromSender",
      "type": "error"
    },
    {
      "inputs": [],
      "name": "NoTokensRemainingToWithdraw",
      "type": "error"
    },
    {
      "inputs": [],
      "name": "SorryYouAreNotEligible",
      "type": "error"
    },
    {
      "inputs": [],
      "name": "UserAlreadyClaimed",
      "type": "error"
    },
    {
      "inputs": [],
      "name": "WithdrawalFailed",
      "type": "error"
    },
    {
      "inputs": [],
      "name": "YouAreNotTheOwner",
      "type": "error"
    },
    {
      "inputs": [],
      "name": "ZeroAddressNotAllowed",
      "type": "error"
    },
    {
      "inputs": [],
      "name": "ZeroAmountNotAllowed",
      "type": "error"
    },
    {
      "anonymous": false,
      "inputs": [
        {
          "indexed": true,
          "internalType": "address",
          "name": "sender",
          "type": "address"
        },
        {
          "indexed": false,
          "internalType": "uint256",
          "name": "amount",
          "type": "uint256"
        }
      ],
      "name": "DepositIntoContractSuccessful",
      "type": "event"
    },
    {
      "anonymous": false,
      "inputs": [],
      "name": "UserClaimedTokens",
      "type": "event"
    },
    {
      "inputs": [
        {
          "internalType": "bytes32",
          "name": "_new_merkle_root",
          "type": "bytes32"
        }
      ],
      "name": "UpdateMerkleRoot",
      "outputs": [],
      "stateMutability": "nonpayable",
      "type": "function"
    },
    {
      "inputs": [],
      "name": "WithdrawRemainingTokens",
      "outputs": [],
      "stateMutability": "nonpayable",
      "type": "function"
    },
    {
      "inputs": [
        {
          "internalType": "uint256",
          "name": "_amount",
          "type": "uint256"
        },
        {
          "internalType": "bytes32[]",
          "name": "_merkleProof",
          "type": "bytes32[]"
        }
      ],
      "name": "claimReward",
      "outputs": [],
      "stateMutability": "nonpayable",
      "type": "function"
    },
    {
      "inputs": [
        {
          "internalType": "uint256",
          "name": "_amount",
          "type": "uint256"
        }
      ],
      "name": "depositIntoContract",
      "outputs": [],
      "stateMutability": "nonpayable",
      "type": "function"
    },
    {
      "inputs": [],
      "name": "merkleRootHash",
      "outputs": [
        {
          "internalType": "bytes32",
          "name": "",
          "type": "bytes32"
        }
      ],
      "stateMutability": "view",
      "type": "function"
    },
    {
      "inputs": [],
      "name": "owner",
      "outputs": [
        {
          "internalType": "address",
          "name": "",
          "type": "address"
        }
      ],
      "stateMutability": "view",
      "type": "function"
    },
    {
      "inputs": [],
      "name": "tokenAddress",
      "outputs": [
        {
          "internalType": "address",
          "name": "",
          "type": "address"
        }
      ],
      "stateMutability": "view",
      "type": "function"
    }
  ],
  "bytecode": "0x608060405234801561001057600080fd5b506040516110f23803806110f28339818101604052810190610032919061015b565b33600160006101000a81548173ffffffffffffffffffffffffffffffffffffffff021916908373ffffffffffffffffffffffffffffffffffffffff16021790555081600260006101000a81548173ffffffffffffffffffffffffffffffffffffffff021916908373ffffffffffffffffffffffffffffffffffffffff16021790555080600081905550505061019b565b600080fd5b600073ffffffffffffffffffffffffffffffffffffffff82169050919050565b60006100f2826100c7565b9050919050565b610102816100e7565b811461010d57600080fd5b50565b60008151905061011f816100f9565b92915050565b6000819050919050565b61013881610125565b811461014357600080fd5b50565b6000815190506101558161012f565b92915050565b60008060408385031215610172576101716100c2565b5b600061018085828601610110565b925050602061019185828601610146565b9150509250929050565b610f48806101aa6000396000f3fe608060405234801561001057600080fd5b506004361061007d5760003560e01c8063938f25181161005b578063938f2518146100c65780639d76ea58146100e2578063ae8bdbc114610100578063ddb6dfc41461011c5761007d565b8063048579be146100825780630a46b9931461009e5780638da5cb5b146100a8575b600080fd5b61009c60048036038101906100979190610b42565b61013a565b005b6100a661034b565b005b6100b0610528565b6040516100bd9190610bb0565b60405180910390f35b6100e060048036038101906100db9190610c30565b61054e565b005b6100ea61077d565b6040516100f79190610bb0565b60405180910390f35b61011a60048036038101906101159190610cc6565b6107a3565b005b6101246107b5565b6040516101319190610d02565b60405180910390f35b6101426107bb565b6000811161017c576040517f0f43956a00000000000000000000000000000000000000000000000000000000815260040160405180910390fd5b6000600260009054906101000a900473ffffffffffffffffffffffffffffffffffffffff1673ffffffffffffffffffffffffffffffffffffffff166370a08231336040518263ffffffff1660e01b81526004016101d99190610bb0565b602060405180830381865afa1580156101f6573d6000803e3d6000fd5b505050506040513d601f19601f8201168201806040525081019061021a9190610d32565b905081811015610256576040517fce5f487200000000000000000000000000000000000000000000000000000000815260040160405180910390fd5b600260009054906101000a900473ffffffffffffffffffffffffffffffffffffffff1673ffffffffffffffffffffffffffffffffffffffff166323b872dd3330856040518463ffffffff1660e01b81526004016102b593929190610d6e565b6020604051808303816000875af11580156102d4573d6000803e3d6000fd5b505050506040513d601f19601f820116820180604052508101906102f89190610ddd565b503373ffffffffffffffffffffffffffffffffffffffff167f2d652cc074007db4dde0365f9b43c5384331768e87e9081d6339970e25be3f288360405161033f9190610e0a565b60405180910390a25050565b6103536107bb565b6000600260009054906101000a900473ffffffffffffffffffffffffffffffffffffffff1673ffffffffffffffffffffffffffffffffffffffff166370a08231306040518263ffffffff1660e01b81526004016103b09190610bb0565b602060405180830381865afa1580156103cd573d6000803e3d6000fd5b505050506040513d601f19601f820116820180604052508101906103f19190610d32565b90506000811161042d576040517f533d4ad500000000000000000000000000000000000000000000000000000000815260040160405180910390fd5b600260009054906101000a900473ffffffffffffffffffffffffffffffffffffffff1673ffffffffffffffffffffffffffffffffffffffff1663a9059cbb600160009054906101000a900473ffffffffffffffffffffffffffffffffffffffff16836040518363ffffffff1660e01b81526004016104ac929190610e25565b6020604051808303816000875af11580156104cb573d6000803e3d6000fd5b505050506040513d601f19601f820116820180604052508101906104ef9190610ddd565b610525576040517f27fcd9d100000000000000000000000000000000000000000000000000000000815260040160405180910390fd5b50565b600160009054906101000a900473ffffffffffffffffffffffffffffffffffffffff1681565b600073ffffffffffffffffffffffffffffffffffffffff163373ffffffffffffffffffffffffffffffffffffffff16036105b4576040517f8579befe00000000000000000000000000000000000000000000000000000000815260040160405180910390fd5b600033846040516020016105c9929190610eb7565b60405160208183030381529060405280519060200120905061062f838380806020026020016040519081016040528093929190818152602001838360200280828437600081840152601f19601f82011690508083019250505050505050600054836108aa565b610665576040517fb2649c1f00000000000000000000000000000000000000000000000000000000815260040160405180910390fd5b600360003373ffffffffffffffffffffffffffffffffffffffff1673ffffffffffffffffffffffffffffffffffffffff16815260200190815260200160002060009054906101000a900460ff16156106e9576040517f8246991900000000000000000000000000000000000000000000000000000000815260040160405180910390fd5b6001600360003373ffffffffffffffffffffffffffffffffffffffff1673ffffffffffffffffffffffffffffffffffffffff16815260200190815260200160002060006101000a81548160ff02191690831515021790555061074b33856108c1565b7f0885b728161c6286e2dc74ae983e59d3bff0509c7c483afdc9bc4b5557ead40560405160405180910390a150505050565b600260009054906101000a900473ffffffffffffffffffffffffffffffffffffffff1681565b6107ab6107bb565b8060008190555050565b60005481565b600073ffffffffffffffffffffffffffffffffffffffff163373ffffffffffffffffffffffffffffffffffffffff1603610821576040517f8579befe00000000000000000000000000000000000000000000000000000000815260040160405180910390fd5b600160009054906101000a900473ffffffffffffffffffffffffffffffffffffffff1673ffffffffffffffffffffffffffffffffffffffff163373ffffffffffffffffffffffffffffffffffffffff16146108a8576040517fd0ba76be00000000000000000000000000000000000000000000000000000000815260040160405180910390fd5b565b6000826108b78584610a70565b1490509392505050565b80600260009054906101000a900473ffffffffffffffffffffffffffffffffffffffff1673ffffffffffffffffffffffffffffffffffffffff166370a08231306040518263ffffffff1660e01b815260040161091d9190610bb0565b602060405180830381865afa15801561093a573d6000803e3d6000fd5b505050506040513d601f19601f8201168201806040525081019061095e9190610d32565b1015610996576040517fa4efbb7c00000000000000000000000000000000000000000000000000000000815260040160405180910390fd5b600260009054906101000a900473ffffffffffffffffffffffffffffffffffffffff1673ffffffffffffffffffffffffffffffffffffffff1663a9059cbb83836040518363ffffffff1660e01b81526004016109f3929190610e25565b6020604051808303816000875af1158015610a12573d6000803e3d6000fd5b505050506040513d601f19601f82011682018060405250810190610a369190610ddd565b610a6c576040517f7fe40eb600000000000000000000000000000000000000000000000000000000815260040160405180910390fd5b5050565b60008082905060005b8451811015610ab557610aa682868381518110610a9957610a98610ee3565b5b6020026020010151610ac0565b91508080600101915050610a79565b508091505092915050565b6000818310610ad857610ad38284610aeb565b610ae3565b610ae28383610aeb565b5b905092915050565b600082600052816020526040600020905092915050565b600080fd5b600080fd5b6000819050919050565b610b1f81610b0c565b8114610b2a57600080fd5b50565b600081359050610b3c81610b16565b92915050565b600060208284031215610b5857610b57610b02565b5b6000610b6684828501610b2d565b91505092915050565b600073ffffffffffffffffffffffffffffffffffffffff82169050919050565b6000610b9a82610b6f565b9050919050565b610baa81610b8f565b82525050565b6000602082019050610bc56000830184610ba1565b92915050565b600080fd5b600080fd5b600080fd5b60008083601f840112610bf057610bef610bcb565b5b8235905067ffffffffffffffff811115610c0d57610c0c610bd0565b5b602083019150836020820283011115610c2957610c28610bd5565b5b9250929050565b600080600060408486031215610c4957610c48610b02565b5b6000610c5786828701610b2d565b935050602084013567ffffffffffffffff811115610c7857610c77610b07565b5b610c8486828701610bda565b92509250509250925092565b6000819050919050565b610ca381610c90565b8114610cae57600080fd5b50565b600081359050610cc081610c9a565b92915050565b600060208284031215610cdc57610cdb610b02565b5b6000610cea84828501610cb1565b91505092915050565b610cfc81610c90565b82525050565b6000602082019050610d176000830184610cf3565b92915050565b600081519050610d2c81610b16565b92915050565b600060208284031215610d4857610d47610b02565b5b6000610d5684828501610d1d565b91505092915050565b610d6881610b0c565b82525050565b6000606082019050610d836000830186610ba1565b610d906020830185610ba1565b610d9d6040830184610d5f565b949350505050565b60008115159050919050565b610dba81610da5565b8114610dc557600080fd5b50565b600081519050610dd781610db1565b92915050565b600060208284031215610df357610df2610b02565b5b6000610e0184828501610dc8565b91505092915050565b6000602082019050610e1f6000830184610d5f565b92915050565b6000604082019050610e3a6000830185610ba1565b610e476020830184610d5f565b9392505050565b60008160601b9050919050565b6000610e6682610e4e565b9050919050565b6000610e7882610e5b565b9050919050565b610e90610e8b82610b8f565b610e6d565b82525050565b6000819050919050565b610eb1610eac82610b0c565b610e96565b82525050565b6000610ec38285610e7f565b601482019150610ed38284610ea0565b6020820191508190509392505050565b7f4e487b7100000000000000000000000000000000000000000000000000000000600052603260045260246000fdfea2646970667358221220518d24554d227faf728f8e9409689fea729b10409d03d1ee96fb7049e00962a764736f6c634300081c0033",
  "linkReferences": {},
  "deployedLinkReferences": {}
}